:060000000A128A11F52F1F
:100A0A00713083168F00031788018901031385014A
:100A1A00FF30831285003830831686000710811351
:100A2A009500831286100615071008000A128A110B
:100A3A0005250A128A110A128A114B270A128A11EB
:100A4A006400013083120313A3002B080739013E07
:100A5A00302D0310A30DFF3E031D2E2D2308FF3A50
:100A6A00850086194C2D4E3083120313A400EA30F8
:100A7A00A300A30B3E2DA40B3E2D000083120313EB
:100A8A0086194C2D0A128A112C260A128A11061A64
:100A9A008F2D823083120313A400DD30A300A30B31
:100AAA00542DA40B542D83120313A501A601752DF1
:100ABA0001302602F430031925020318792D063075
:100ACA0083120313A4002F30A300A30B6A2DA40BD7
:100ADA006A2D6F2D83120313A50A0319A60A64004F
:100AEA0083120313061E5D2D01302602F43003190A
:100AFA002502031C862D0A128A119A250A128A11C6
:100B0A00892D0330AB0AAB0583120313061A8F2D06
:100B1A006400892D861A252D861483120313861ADA
:100B2A00982D6400922D8610252D2B08031D9F2DCC
:100B3A002A30AA2D2B0BA32D2930AA2D02302B06E1
:100B4A00031DA92D2830AA2D2730FD00850102306A
:100B5A00FC008630FB009930FA00FA0BB22DFB0B31
:100B6A00B22DFC0BB22DFF30831203138500023025
:100B7A00FC008630FB009930FA00FA0BC22DFB0B01
:100B8A00C22DFC0BC22D64000130FA007D088400DE
:100B9A0083130008FB000310FB0C0310FB0C7B08FB
:100BAA000739013EDA2D0310FA0DFF3E031DD82D39
:100BBA007A08FF3A831203138500061AF32D7D087B
:100BCA0084001F3000020318ED2D7D088400800A7E
:100BDA009630F600F7011C270A128A1183120313B2
:100BEA00861A072E7D088400023083130002031C34
:100BFA00012E7D08840080039630F600F7011C2739
:100C0A000A128A11831203138619222E86270A12C0
:100C1A008A11831203138619142E64000E2E0230D1
:100C2A00FC000430FB00BA30FA00FA0B1A2EFB0B58
:100C3A001A2EFC0B1A2E000008003430FB00F1308B
:100C4A00FA00FA0B262EFB0B262E2B2EC82D861405
:100C5A002A08F0006430F101F200F30132270A1287
:100C6A008A117108F7007008F6001C270A128A1107
:100C7A00F82E061107142908F0006430F101F20079
:100C8A00F30132270A128A117108A1007008A00024
:100C9A008619CF2E64008312031320082104031936
:100CAA004D2E0330FB009730FA00FA0B5A2EFB0B3D
:100CBA005A2E5F2E013083120313A0020030031C48
:100CCA00A103A10220082104031D4D2E07104D2E59
:100CDA00061107142908F0006430F101F200F3014B
:100CEA0032270A128A117108F7007008F6001C27C9
:100CFA000A128A1183120313071083120313861927
:100D0A00882E6400822E6430F600F7011C270A122E
:100D1A008A1183120313861D942E64008E2E0615E3
:100D2A00831203138619082F6400952E06110714DF
:100D3A006830FB00E430FA00FA0BA12EFB0BA12E5F
:100D4A0000008312031307102808F0000A30F1018B
:100D5A00F200F30132270A128A117108F7007008AB
:100D6A00F6001C270A128A11831203130615A20120
:100D7A008619CC2E0A30F600F7011C270A128A11AE
:100D8A00831203132D30A20A2202031CBD2E861DD4
:100D9A00861D9B2E07100615082F061107144E30C4
:100DAA00FB00EB30FA00FA0BD82EFB0BD82E83127D
:100DBA00031307102708F0000A30F101F200F301CB
:100DCA0032270A128A117108F7007008F6001C27E8
:100DDA000A128A1183120313061583120313861942
:100DEA00082F6400F22E831203132B08003A03190A
:100DFA003E2E013A03196D2E033A0319CD2E013AFC
:100E0A000319D22E082F2A08F0006430F101F200EB
:100E1A00F30132270A128A117108F7007008F600E6
:100E2A001C278312031386100710061508000130C9
:100E3A00F6020030031CF703F702760F272F770A12
:100E4A00031908000330F9009730F800F80B2B2F2C
:100E5A00F90B2B2F302F64001C2FF401F501701CA5
:100E6A003C2F7208F4070318F50A7308F5070310F4
:100E7A00F20DF30D0310F10CF00C70087104031D50
:100E8A00342F7508F1007408F00008000030CA27F2
:100E9A000A128A110313AB000130CA270A128A11F7
:100EAA000313AA000230CA270A128A110313A900DF
:100EBA000330CA270A128A110313A8000430CA276A
:100ECA000A128A110313A70004302B020318AB017C
:100EDA0020302A02031C732F0530AA002030290271
:100EEA00031C792F0A30A90020302802031C7F2F07
:100EFA000A30A80020302702031C08000530A7008A
:100F0A0008000030CA270A128A1103132B06031994
:100F1A00942F2B08F0000030DA270A128A110130C8
:100F2A00CA270A128A1103132A060319A22F2A08AA
:100F3A00F0000130DA270A128A110230CA270A128F
:100F4A008A11031329060319B02F2908F000023069
:100F5A00DA270A128A110330CA270A128A110313DE
:100F6A0028060319BE2F2808F0000330DA270A12D0
:100F7A008A110430CA270A128A1103132706031991
:100F8A0008002708F0000430DA2FF0006400831606
:100F9A0003178C18CB2F700883128D003F308316ED
:100FAA008C050C1483120C080800F1008316031731
:100FBA008C18DB2F710883128D0070088C003F306B
:100FCA0083168C0503108B1B03148B130C155530D9
:100FDA008D00AA308D008C140C1103188B17080091
:100FEA000530A7000A30A800A9000530AA0083012D
:060FFA000A128A111B2DF2
:02400E00EC23A1
:00000001FF
